:100000000C9434000C9451000C9451000C94510049
:100010000C9451000C9451000C9451000C9451001C
:100020000C9451000C9451000C9451000C9451000C
:100030000C9451000C9451000C9451000C945100FC
:100040000C9451000C9451000C9451000C945100EC
:100050000C9451000C9451000C9451000C945100DC
:100060000C9451000C94510011241FBECFEFD8E026
:10007000DEBFCDBF11E0A0E0B1E0EAE7F4E002C0EE
:1000800005900D92A032B107D9F721E0A0E2B1E0CE
:1000900001C01D92A032B207E1F70E9499000C94B2
:1000A0003B020C940000EAE7F0E087E0808380E404
:1000B00080937C00808180688083808180648083DD
:1000C0000895ECE7F0E09081907F90839081892BF8
:1000D0008083EAE7F0E0808180648083808186FD10
:1000E000FDCF809178009091790008951092C5001D
:1000F00083E38093C40088E18093C10086E080930D
:10010000C2000895E0ECF0E0908195FFFDCF809370
:10011000C6000895CF93DF93EC018881882331F0E6
:1001200021960E94820089918111FBCFDF91CF91AE
:100130000895CF93DF9300D000D01F92CDB7DEB7E4
:100140000E9453000E9476008FEF87B984B980E047
:100150000E946100BC0180E090E00E94830124E4E1
:1001600039E643E050E40E94E2000E945401DC01C1
:10017000CB018C014AE0BE016F5F7F4F0E941102EC
:1001800080E091E00E948A00CE0101960E948A00E0
:100190008DE00E9482002FEF81EE94E0215080409C
:1001A0009040E1F700C000000333110538F082E110
:1001B00091E00E948A00289A299AC9CF2898299804
:1001C0002A98C5CF0E94F6000C94D7010E94D00156
:1001D00058F00E94C90140F029F45F3F29F00C94C7
:1001E000C00151110C940B020C94C6010E94E8014D
:1001F00068F39923B1F3552391F3951B550BBB2756
:10020000AA2762177307840738F09F5F5F4F220F9A
:10021000331F441FAA1FA9F335D00E2E3AF0E0E891
:1002200032D091505040E695001CCAF72BD0FE2FDB
:1002300029D0660F771F881FBB1F2617370748076F
:10024000AB07B0E809F0BB0B802DBF01FF27935827
:100250005F4F3AF09E3F510578F00C94C0010C942A
:100260000B025F3FE4F3983ED4F38695779567954C
:10027000B795F7959F5FC9F7880F911D969587955C
:1002800097F90895E1E0660F771F881FBB1F62177B
:1002900073078407BA0720F0621B730B840BBA0B39
:1002A000EE1F88F7E09508950E94F00188F09F57AF
:1002B00098F0B92F9927B751B0F0E1F0660F771F8A
:1002C000881F991F1AF0BA95C9F714C0B13091F080
:1002D0000E940A02B1E008950C940A02672F782F59
:1002E0008827B85F39F0B93FCCF386957795679545
:1002F000B395D9F73EF490958095709561957F4FB1
:100300008F4F9F4F0895E89409C097FB3EF4909556
:100310008095709561957F4F8F4F9F4F9923A9F0DE
:10032000F92F96E9BB279395F6958795779567956D
:10033000B795F111F8CFFAF4BB0F11F460FF1BC0B1
:100340006F5F7F4F8F4F9F4F16C0882311F096E944
:1003500011C0772321F09EE8872F762F05C06623F2
:1003600071F096E8862F70E060E02AF09A95660FAB
:10037000771F881FDAF7880F9695879597F9089564
:1003800097F99F6780E870E060E008959FEF80EC48
:10039000089500240A9416161706180609060895EB
:1003A00000240A9412161306140605060895092E51
:1003B0000394000C11F4882352F0BB0F40F4BF2BC0
:1003C00011F460FF04C06F5F7F4F8F4F9F4F089500
:1003D00057FD9058440F551F59F05F3F71F04795F6
:1003E000880F97FB991F61F09F3F79F087950895DB
:1003F000121613061406551FF2CF4695F1DF08C0FA
:10040000161617061806991FF1CF86957105610516
:1004100008940895E894BB2766277727CB0197F9BE
:100420000895BB27FB015527AA27880F991FAA1FEC
:10043000A41710F0A41B83955051B9F7A05DAA33FF
:1004400008F0A95DA193009779F7B111B1931192CA
:10045000CB010C942B02DC01FC01672F71917723F7
:10046000E1F7329704C07C916D9370836291AE176F
:0A047000BF07C8F30895F894FFCF0A
:10047A0054656D70657261747572655B5E435D206B
:10048A003A00416C6572742120486967682000004F
:00000001FF
